{
  "contractName": "RCC",
  "abi": [
    {
      "constant": true,
      "inputs": [
        {
          "name": "",
          "type": "address"
        }
      ],
      "name": "stakes",
      "outputs": [
        {
          "name": "",
          "type": "uint256"
        }
      ],
      "payable": false,
      "stateMutability": "view",
      "type": "function"
    },
    {
      "constant": true,
      "inputs": [
        {
          "name": "",
          "type": "uint256"
        }
      ],
      "name": "challenges",
      "outputs": [
        {
          "name": "votes_counter",
          "type": "uint256"
        },
        {
          "name": "revealed_votes_counter",
          "type": "uint256"
        },
        {
          "name": "recruiting_votes",
          "type": "bool"
        },
        {
          "name": "reveal_stage",
          "type": "bool"
        },
        {
          "name": "finished",
          "type": "bool"
        },
        {
          "name": "yes_vote_counter",
          "type": "uint256"
        },
        {
          "name": "result",
          "type": "bool"
        },
        {
          "name": "can_claim_rewards",
          "type": "bool"
        }
      ],
      "payable": false,
      "stateMutability": "view",
      "type": "function"
    },
    {
      "constant": true,
      "inputs": [],
      "name": "total_active_challenges",
      "outputs": [
        {
          "name": "",
          "type": "uint256"
        }
      ],
      "payable": false,
      "stateMutability": "view",
      "type": "function"
    },
    {
      "constant": true,
      "inputs": [],
      "name": "throughput",
      "outputs": [
        {
          "name": "",
          "type": "uint256"
        }
      ],
      "payable": false,
      "stateMutability": "view",
      "type": "function"
    },
    {
      "constant": true,
      "inputs": [
        {
          "name": "",
          "type": "address"
        }
      ],
      "name": "num_active_challenges",
      "outputs": [
        {
          "name": "",
          "type": "uint256"
        }
      ],
      "payable": false,
      "stateMutability": "view",
      "type": "function"
    },
    {
      "constant": true,
      "inputs": [],
      "name": "token",
      "outputs": [
        {
          "name": "",
          "type": "address"
        }
      ],
      "payable": false,
      "stateMutability": "view",
      "type": "function"
    },
    {
      "inputs": [
        {
          "name": "token_address",
          "type": "address"
        }
      ],
      "payable": false,
      "stateMutability": "nonpayable",
      "type": "constructor"
    },
    {
      "constant": false,
      "inputs": [],
      "name": "create_challenge",
      "outputs": [
        {
          "name": "",
          "type": "uint256"
        }
      ],
      "payable": false,
      "stateMutability": "nonpayable",
      "type": "function"
    },
    {
      "constant": false,
      "inputs": [
        {
          "name": "challenge_id",
          "type": "uint256"
        }
      ],
      "name": "claim_lottery_win",
      "outputs": [],
      "payable": false,
      "stateMutability": "nonpayable",
      "type": "function"
    },
    {
      "constant": false,
      "inputs": [
        {
          "name": "concealed_vote",
          "type": "bytes32"
        },
        {
          "name": "challenge_id",
          "type": "uint256"
        }
      ],
      "name": "submit_concealed_vote",
      "outputs": [],
      "payable": false,
      "stateMutability": "nonpayable",
      "type": "function"
    },
    {
      "constant": false,
      "inputs": [
        {
          "name": "vote",
          "type": "bool"
        },
        {
          "name": "challenge_id",
          "type": "uint256"
        },
        {
          "name": "salt",
          "type": "uint256"
        }
      ],
      "name": "reveal_vote",
      "outputs": [],
      "payable": false,
      "stateMutability": "nonpayable",
      "type": "function"
    },
    {
      "constant": false,
      "inputs": [
        {
          "name": "challenge_id",
          "type": "uint256"
        }
      ],
      "name": "tally_up",
      "outputs": [],
      "payable": false,
      "stateMutability": "nonpayable",
      "type": "function"
    },
    {
      "constant": false,
      "inputs": [
        {
          "name": "challenge_id",
          "type": "uint256"
        }
      ],
      "name": "challenge_finished",
      "outputs": [
        {
          "name": "",
          "type": "bool"
        }
      ],
      "payable": false,
      "stateMutability": "nonpayable",
      "type": "function"
    },
    {
      "constant": false,
      "inputs": [
        {
          "name": "challenge_id",
          "type": "uint256"
        }
      ],
      "name": "challenge_result",
      "outputs": [
        {
          "name": "",
          "type": "bool"
        }
      ],
      "payable": false,
      "stateMutability": "nonpayable",
      "type": "function"
    },
    {
      "constant": false,
      "inputs": [
        {
          "name": "challenge_id",
          "type": "uint256"
        }
      ],
      "name": "claim_reward",
      "outputs": [],
      "payable": false,
      "stateMutability": "nonpayable",
      "type": "function"
    }
  ],
  "bytecode": "0x608060405234801561001057600080fd5b5060405160208061147e833981018060405281019080805190602001909291905050506000808190555060018081905550600360028190555080600760006101000a81548173ffffffffffffffffffffffffffffffffffffffff021916908373ffffffffffffffffffffffffffffffffffffffff1602179055506103de600881905550506113db806100a36000396000f3006080604052600436106100d0576000357c0100000000000000000000000000000000000000000000000000000000900463ffffffff16806316934fc4146100d5578063273bffc41461012c57806382001ac6146101595780638f1d37761461019e5780639d982ce314610224578063a032130e1461024f578063ad0ac40d1461027a578063c9d0ba85146102bf578063ca372972146102ec578063e210505614610319578063ee308a761461035c578063eea9ceb814610387578063f8cbcaf5146103de578063fc0c546a14610419575b600080fd5b3480156100e157600080fd5b50610116600480360381019080803573ffffffffffffffffffffffffffffffffffffffff169060200190929190505050610470565b6040518082815260200191505060405180910390f35b34801561013857600080fd5b5061015760048036038101908080359060200190929190505050610488565b005b34801561016557600080fd5b5061018460048036038101908080359060200190929190505050610629565b604051808215151515815260200191505060405180910390f35b3480156101aa57600080fd5b506101c960048036038101908080359060200190929190505050610656565b6040518089815260200188815260200187151515158152602001861515151581526020018515151515815260200184815260200183151515158152602001821515151581526020019850505050505050505060405180910390f35b34801561023057600080fd5b506102396106df565b6040518082815260200191505060405180910390f35b34801561025b57600080fd5b506102646106e5565b6040518082815260200191505060405180910390f35b34801561028657600080fd5b506102a560048036038101908080359060200190929190505050610835565b604051808215151515815260200191505060405180910390f35b3480156102cb57600080fd5b506102ea60048036038101908080359060200190929190505050610862565b005b3480156102f857600080fd5b5061031760048036038101908080359060200190929190505050610a9f565b005b34801561032557600080fd5b5061035a6004803603810190808035151590602001909291908035906020019092919080359060200190929190505050610b65565b005b34801561036857600080fd5b50610371610ebb565b6040518082815260200191505060405180910390f35b34801561039357600080fd5b506103c8600480360381019080803573ffffffffffffffffffffffffffffffffffffffff169060200190929190505050610ec1565b6040518082815260200191505060405180910390f35b3480156103ea57600080fd5b50610417600480360381019080803560001916906020019092919080359060200190929190505050610ed9565b005b34801561042557600080fd5b5061042e611389565b604051808273ffffffffffffffffffffffffffffffffffffffff1673ffffffffffffffffffffffffffffffffffffffff16815260200191505060405180910390f35b60036020528060005260406000206000915090505481565b600080600554600854600360003373ffffffffffffffffffffffffffffffffffffffff1673ffffffffffffffffffffffffffffffffffffffff16815260200190815260200160002054028115156104db57fe5b0491506103e860014303406101a46040516020018083600019166000191681526020018261ffff167e01000000000000000000000000000000000000000000000000000000000000028152600201925050506040516020818303038152906040526040518082805190602001908083835b602083101515610571578051825260208201915060208101905060208303925061054c565b6001836020036101000a0380198251168184511680821785525050505050509050019150506040518091039020600190048115156105ab57fe5b06905080821015156106245760016006600085815260200190815260200160002060000160003373ffffffffffffffffffffffffffffffffffffffff1673ffffffffffffffffffffffffffffffffffffffff16815260200190815260200160002060006101000a81548160ff0219169083151502179055505b505050565b60006006600083815260200190815260200160002060080160029054906101000a900460ff169050919050565b60066020528060005260406000206000915090508060060154908060070154908060080160009054906101000a900460ff16908060080160019054906101000a900460ff16908060080160029054906101000a900460ff169080600901549080600a0160009054906101000a900460ff169080600a0160019054906101000a900460ff16905088565b60055481565b600061010060405190810160405280600081526020016000815260200160011515815260200160001515815260200160001515815260200160008152602001600015158152602001600015158152506006600080548152602001908152602001600020600082015181600601556020820151816007015560408201518160080160006101000a81548160ff02191690831515021790555060608201518160080160016101000a81548160ff02191690831515021790555060808201518160080160026101000a81548160ff02191690831515021790555060a0820151816009015560c082015181600a0160006101000a81548160ff02191690831515021790555060e082015181600a0160016101000a81548160ff021916908315150217905550905050600160008082825401925050819055506001600560008282540192505081905550600160005403905090565b600060066000838152602001908152602001600020600a0160009054906101000a900460ff169050919050565b60066000828152602001908152602001600020600a0160019054906101000a900460ff16151561089157600080fd5b600760009054906101000a900473ffffffffffffffffffffffffffffffffffffffff1673ffffffffffffffffffffffffffffffffffffffff1663beabacc830336006600086815260200190815260200160002060050160003373ffffffffffffffffffffffffffffffffffffffff1673ffffffffffffffffffffffffffffffffffffffff168152602001908152602001600020546040518463ffffffff167c0100000000000000000000000000000000000000000000000000000000028152600401808473ffffffffffffffffffffffffffffffffffffffff1673ffffffffffffffffffffffffffffffffffffffff1681526020018373ffffffffffffffffffffffffffffffffffffffff1673ffffffffffffffffffffffffffffffffffffffff1681526020018281526020019350505050600060405180830381600087803b1580156109dd57600080fd5b505af11580156109f1573d6000803e3d6000fd5b5050505060006006600083815260200190815260200160002060050160003373ffffffffffffffffffffffffffffffffffffffff1673ffffffffffffffffffffffffffffffffffffffff168152602001908152602001600020819055506001600460003373ffffffffffffffffffffffffffffffffffffffff1673ffffffffffffffffffffffffffffffffffffffff1681526020019081526020016000206000828254039250508190555050565b6006600082815260200190815260200160002060080160029054906101000a900460ff161515610ace57600080fd5b6002546006600083815260200190815260200160002060090154600202101515610b2257600160066000838152602001908152602001600020600a0160006101000a81548160ff0219169083151502179055505b600160066000838152602001908152602001600020600a0160016101000a81548160ff021916908315150217905550600160056000828254039250508190555050565b60006006600084815260200190815260200160002060080160019054906101000a900460ff161515610b9657600080fd5b6006600084815260200190815260200160002060030160003373ffffffffffffffffffffffffffffffffffffffff1673ffffffffffffffffffffffffffffffffffffffff16815260200190815260200160002060009054906101000a900460ff161515610c0257600080fd5b6006600084815260200190815260200160002060040160003373ffffffffffffffffffffffffffffffffffffffff1673ffffffffffffffffffffffffffffffffffffffff16815260200190815260200160002060009054906101000a900460ff16151515610c6f57600080fd5b600090508315610c7e57600190505b6006600084815260200190815260200160002060010160003373ffffffffffffffffffffffffffffffffffffffff1673ffffffffffffffffffffffffffffffffffffffff168152602001908152602001600020546000191681836040518083815260200182815260200192505050604051809103902060001916141515610d0457600080fd5b836006600085815260200190815260200160002060020160003373ffffffffffffffffffffffffffffffffffffffff1673ffffffffffffffffffffffffffffffffffffffff16815260200190815260200160002060006101000a81548160ff0219169083151502179055508315610d9b57600160066000858152602001908152602001600020600901600082825401925050819055505b6001600660008581526020019081526020016000206007016000828254019250508190555060016006600085815260200190815260200160002060040160003373ffffffffffffffffffffffffffffffffffffffff1673ffffffffffffffffffffffffffffffffffffffff16815260200190815260200160002060006101000a81548160ff0219169083151502179055506002546006600085815260200190815260200160002060070154101515610eb55760006006600085815260200190815260200160002060080160016101000a81548160ff02191690831515021790555060016006600085815260200190815260200160002060080160026101000a81548160ff021916908315150217905550610eb483610a9f565b5b50505050565b60085481565b60046020528060005260406000206000915090505481565b600154600760009054906101000a900473ffffffffffffffffffffffffffffffffffffffff1673ffffffffffffffffffffffffffffffffffffffff1663cfea2bf033306040518363ffffffff167c0100000000000000000000000000000000000000000000000000000000028152600401808373ffffffffffffffffffffffffffffffffffffffff1673ffffffffffffffffffffffffffffffffffffffff1681526020018273ffffffffffffffffffffffffffffffffffffffff1673ffffffffffffffffffffffffffffffffffffffff16815260200192505050602060405180830381600087803b158015610fcd57600080fd5b505af1158015610fe1573d6000803e3d6000fd5b505050506040513d6020811015610ff757600080fd5b81019080805190602001909291905050501015151561101557600080fd5b6006600082815260200190815260200160002060080160009054906101000a900460ff16151561104457600080fd5b600015156006600083815260200190815260200160002060030160003373ffffffffffffffffffffffffffffffffffffffff1673ffffffffffffffffffffffffffffffffffffffff16815260200190815260200160002060009054906101000a900460ff1615151415156110b757600080fd5b6001600460003373ffffffffffffffffffffffffffffffffffffffff1673ffffffffffffffffffffffffffffffffffffffff16815260200190815260200160002060008282540192505081905550600760009054906101000a900473ffffffffffffffffffffffffffffffffffffffff1673ffffffffffffffffffffffffffffffffffffffff166377fa951b33306001546040518463ffffffff167c0100000000000000000000000000000000000000000000000000000000028152600401808473ffffffffffffffffffffffffffffffffffffffff1673ffffffffffffffffffffffffffffffffffffffff1681526020018373ffffffffffffffffffffffffffffffffffffffff1673ffffffffffffffffffffffffffffffffffffffff1681526020018281526020019350505050600060405180830381600087803b15801561120057600080fd5b505af1158015611214573d6000803e3d6000fd5b505050506001600660008381526020019081526020016000206006016000828254019250508190555060016006600083815260200190815260200160002060030160003373ffffffffffffffffffffffffffffffffffffffff1673ffffffffffffffffffffffffffffffffffffffff16815260200190815260200160002060006101000a81548160ff021916908315150217905550816006600083815260200190815260200160002060010160003373ffffffffffffffffffffffffffffffffffffffff1673ffffffffffffffffffffffffffffffffffffffff168152602001908152602001600020816000191690555060025460066000838152602001908152602001600020600601541015156113855760016006600083815260200190815260200160002060080160016101000a81548160ff02191690831515021790555060006006600083815260200190815260200160002060080160006101000a81548160ff0219169083151502179055505b5050565b600760009054906101000a900473ffffffffffffffffffffffffffffffffffffffff16815600a165627a7a7230582084b1822ea180a3270a82dca4fb121de977ad1e3aacb6531d99f776f3598405c60029",
  "source": "pragma solidity^0.4.24;\r\nimport \"./Token.sol\";\r\n\r\ncontract RCC {\r\n\r\n\tstruct Challenge {\r\n\t\t//mapping(address => uint) public secret_votes;\r\n\t\tmapping(address => bool) won_lottery;\r\n\t\tmapping(address => bytes32) concealed_votes;\r\n\t\tmapping(address => bool) open_votes;\r\n\t\tmapping(address => bool) has_voted;\r\n\t\tmapping(address => bool) has_revealed;\r\n\t\tmapping(address => uint) rewards;\r\n\t\t\r\n\t\tuint votes_counter;\r\n\t\tuint revealed_votes_counter;\r\n\t\tbool recruiting_votes;\r\n\t\tbool reveal_stage;\r\n\t\tbool finished;\r\n\t\tuint yes_vote_counter;\r\n\t\tbool result;\r\n\t\tbool can_claim_rewards;\r\n\r\n\t}\r\n\tuint counter;\r\n\tuint vote_deposit;\r\n\tuint votes_per_challenge;\r\n\t// we keep track of who staked how how much\r\n\tmapping(address => uint) public stakes;\r\n\t// we need to track how many challenges the agents participate in, to ensure they can't withdraw stake in the middle of vote\r\n\tmapping(address => uint) public num_active_challenges;\r\n\t// also the total number of active challenges\r\n\tuint public total_active_challenges;\r\n\t// we index challenges with ints\r\n\tmapping(uint => Challenge) public challenges;\r\n\r\n\r\n\tToken public token;\r\n\tuint public throughput;  // this is actually throughput times 1000, to avoid fixed point types. Hacky, need a better fix.\r\n\r\n\tconstructor(address token_address) public {\r\n\t\tcounter = 0;\r\n\t\tvote_deposit = 1;\r\n\t\tvotes_per_challenge = 3;\r\n\t\ttoken = Token(token_address);\r\n\t\tthroughput = 990;\r\n\r\n\t}\r\n\r\n\tfunction create_challenge() public returns(uint) {\r\n\t\tchallenges[counter] = Challenge({votes_counter: 0, revealed_votes_counter: 0, recruiting_votes: true, reveal_stage: false, finished:false, yes_vote_counter:0, result:false, can_claim_rewards: false});\r\n\t\tcounter +=1;\r\n\t\ttotal_active_challenges+=1;\r\n\t\treturn(counter-1);\r\n\t}\r\n\r\n\tfunction claim_lottery_win(uint challenge_id) public {\r\n\r\n\t\tuint p = stakes[msg.sender] * throughput /total_active_challenges;\r\n\t\tuint256 random =  uint256(uint256(keccak256(abi.encodePacked(block.blockhash(block.number-1), 420))) % 1000);\r\n\t\tif (p>= random) {\r\n\t\t\tchallenges[challenge_id].won_lottery[msg.sender] = true;\r\n\t\t}\r\n\t}\r\n\r\n\tfunction submit_concealed_vote(bytes32 concealed_vote,uint challenge_id) public {\r\n\t\trequire(token.is_allowed(msg.sender,this) >= vote_deposit);\r\n\t\trequire(challenges[challenge_id].recruiting_votes);\r\n\t\trequire(challenges[challenge_id].has_voted[msg.sender] == false);\r\n\t\tnum_active_challenges[msg.sender] +=1;\r\n\t\ttoken.send_from(msg.sender,this, vote_deposit);\r\n\t\tchallenges[challenge_id].votes_counter +=1;\r\n\t\tchallenges[challenge_id].has_voted[msg.sender] = true;\r\n\t\tchallenges[challenge_id].concealed_votes[msg.sender] = concealed_vote;\r\n\t\t//if (vote_value) {\r\n\t\t//\tchallenge.yes_vote_counter +=1;\r\n\t\t//}\r\n\t\tif (challenges[challenge_id].votes_counter>=votes_per_challenge){\r\n\t\t\tchallenges[challenge_id].reveal_stage = true;\r\n\t\t\tchallenges[challenge_id].recruiting_votes=false;\r\n\t\t\t//tally_up(challenge_id);\r\n\t\t}\r\n\r\n\t}\r\n\r\n\tfunction reveal_vote(bool vote,uint challenge_id, uint salt) public {\r\n\t\t// vote is in the reveal stage\r\n\t\trequire(challenges[challenge_id].reveal_stage);\r\n\t\t// voter has voted\r\n\t\trequire(challenges[challenge_id].has_voted[msg.sender]);\r\n\t\t// voter hasn't revealed the vote yet\r\n\t\trequire(!challenges[challenge_id].has_revealed[msg.sender]);\r\n\t\t// the vote is consistent with the hash\r\n\t\tuint vote_int = 0;\r\n\t\tif (vote) {\r\n\t\t\tvote_int = 1;\r\n\t\t}\r\n\r\n\r\n\t\trequire(keccak256(vote_int, salt) == challenges[challenge_id].concealed_votes[msg.sender]);\r\n\t\tchallenges[challenge_id].open_votes[msg.sender] = vote;\r\n\t\tif (vote) {\r\n\t\t\tchallenges[challenge_id].yes_vote_counter +=1;\r\n\t\t}\r\n\t\tchallenges[challenge_id].revealed_votes_counter +=1;\r\n\t\tchallenges[challenge_id].has_revealed[msg.sender] = true;\r\n\t\tif (challenges[challenge_id].revealed_votes_counter>= votes_per_challenge) {\r\n\t\t\tchallenges[challenge_id].reveal_stage = false;\r\n\t\t\tchallenges[challenge_id].finished = true;\r\n\t\t\ttally_up(challenge_id);\r\n\t\t}\r\n\r\n\t}\r\n\r\n\tfunction tally_up(uint challenge_id) public {\r\n\t\trequire(challenges[challenge_id].finished);\r\n\t\tif (2*challenges[challenge_id].yes_vote_counter>= votes_per_challenge) {\r\n\t\t\tchallenges[challenge_id].result = true;\r\n\t\t}\r\n\t\tchallenges[challenge_id].can_claim_rewards = true;\r\n\t\ttotal_active_challenges-=1;\r\n\t\t\r\n\t\t//challenge.tokens_distributed=true\r\n\t}\r\n\r\n\tfunction challenge_finished(uint challenge_id) public returns(bool) {\r\n\t\treturn(challenges[challenge_id].finished);\r\n\t}\r\n\tfunction challenge_result(uint challenge_id) public returns(bool) {\r\n\t\treturn(challenges[challenge_id].result);\r\n\t}\r\n\r\n\tfunction claim_reward(uint challenge_id) public {\r\n\t\t// can this fail due to rounding or something?\r\n\t\trequire(challenges[challenge_id].can_claim_rewards);\r\n\t\ttoken.transfer(this,msg.sender,challenges[challenge_id].rewards[msg.sender]);\r\n\t\tchallenges[challenge_id].rewards[msg.sender] = 0;\r\n\t\tnum_active_challenges[msg.sender]-=1;\r\n\r\n\t}\r\n}",
  "sourcePath": "C:\\Users\\Artur\\computable\\consensus_computer\\contracts\\rcc.sol",
  "compiler": {
    "name": "solc",
    "version": "0.4.24+commit.e67f0147.Emscripten.clang"
  },
  "schemaVersion": "2.0.1",
  "updatedAt": "2018-08-06T17:38:22.002Z"
}